:020000040800F2
:1000000068460020890100088D1C0008591C000862
:10001000891C0008E9170008F11F00080000000013
:100020000000000000000000000000009D1D00080E
:10003000031A000800000000011D0008891E0008C6
:10004000A3010008A3010008A3010008A301000800
:10005000A3010008A3010008A3010008A3010008F0
:10006000A3010008A3010008A3010008ED17000880
:10007000A3010008A3010008A3010008A3010008D0
:10008000A3010008A3010008A3010008A3010008C0
:10009000A3010008A3010008A3010008A3010008B0
:1000A000A3010008A3010008A3010008A3010008A0
:1000B000A3010008A3010008A3010008A301000890
:1000C000A3010008A3010008A3010008A301000880
:1000D000A3010008A3010008A3010008A301000870
:1000E000A3010008A3010008A301000800F002F822
:1000F00000F03AF80AA090E8000C82448344AAF188
:100100000107DA4501D100F02FF8AFF2090EBAE885
:100110000F0013F0010F18BFFB1A43F0010318473B
:10012000602A0000802A0000103A24BF78C878C1F5
:10013000FAD8520724BF30C830C144BF04680C60ED
:10014000704700000023002400250026103A28BF35
:1001500078C1FBD8520728BF30C148BF0B60704739
:100160001FB51FBD10B510BD01F034F91146FFF7E2
:10017000F7FF01F03FFF01F052F903B4FFF7F2FF80
:1001800003BC01F055F900000948804709480047C1
:10019000FEE7FEE7FEE7FEE7FEE7FEE7FEE7FEE737
:1001A000FEE7FEE704480549054A064B7047000094
:1001B0008D1E0008ED000008684000206846002001
:1001C00068420020684200202DE9F04F4FF0000CFB
:1001D0004FF0000301EB9C5EBEF90250BEF90040F7
:1001E0000EF5806EBEF90290BEF900800EF5806EAD
:1001F000BEF90270BEF900600EF5806EBEF902B065
:10020000BEF900A00EF5806ED044D944A8EB4A0A8E
:10021000A9EB4B0B4FEAA4044FEAA50504EBA60497
:1002200005EBA705A4EB6606A5EB670704EBA8049E
:1002300005EBA905A4EB6808A5EB690906EBAB067D
:10024000A7EBAA07A6EB6B0B07EB6A0A458020F821
:10025000044B478020F8046BA0F8029020F8048B30
:10026000A0F802A020F804BB03F1010393FAA3FC59
:10027000B3F5807FAED1A0EB82014FF010031209DD
:100280000FF2341000F1000006B403EB430C61449C
:10029000A2F5803202EB8332B1F90250B1F900408D
:1002A000A1EB0301B0F902B0B0F900A000F1040025
:1002B000A5EB040E0EFB0BFC0AEB4B0E05FB0ACB69
:1002C00004FB0ECAB1F90250B1F90040A1EB0301E1
:1002D000B0F90290B0F9008000F10400A5EB040E23
:1002E0000EFB09FC08EB490E05FB08C904FB0EC810
:1002F000B1F90250B1F90040A1EB0301B0F902706D
:10030000B0F9006000F10400A5EB040E0EFB07FC41
:1003100006EB470E05FB06C704FB0EC6B1F90250FB
:10032000B1F9004001F10001D044D944A8EB4A0AD8
:10033000A9EB4B0B4FEAA4044FEAA50504EB2644B6
:1003400005EB2745A4EBE636A5EBE73704EB28449D
:1003500005EB2945A4EBE838A5EBE93906EB2B467C
:10036000A7EB2A47A6EBEB3B07EBEA3A4D800C8064
:1003700019444F800E801944A1F80290A1F8008022
:100380001944A1F802A021F804BBB2F5803283DA47
:1003900003EB430C6144A2F101025FEA024E18BF75
:1003A000A0EB0C007FF476AF06BC4FEA8303920803
:1003B0007FF46AAFBDE8F08F00400000004000000D
:1003C000004000005DDD213BA3227E180000412D8E
:1003D0007EA5412D0000412D00C000405DDD82E77B
:1003E0005DDD213B7EA5412D004000000040000066
:1003F00000400000AA2A94126B39460649327C0C50
:10040000A8118E2349327C0CA3227E1821F7793162
:10041000AA2A9412A8118E235DDD213BA3227E1807
:100420000000412D95C6B13F461A2B1E58EE3735B8
:10043000BEB4C53EA8118E235DDD213B63A9713892
:10044000DF089A28B7CDC53E7EA5412D0000412D7D
:1004500000C0004063A92B1E21F77931BEB4C53E10
:10046000BEB47C0C58EE373561AC213B95C6BAF969
:10047000BAE571383BA737355DDD82E75DDD213BAD
:100480007EA5412D21F766D756D53F3D3BA78E234C
:10049000A811C9CAB7CDC53E61AC7E18AA2AC1C28F
:1004A00095C6B13FBEB47C0C004000000040000087
:1004B000004000001E3BB504693E9201C83C240385
:1004C000EB356409C83C24036B3946066C30060ED4
:1004D0001E3BB504EB356409AA2A94126B39460613
:1004E00049327C0CAE240917AF37D607882E8D0F02
:1004F0007E1E5D1BEB356409AA2A941224188C1FFA
:100500001E34F10AB3269015A8118E2349327C0CB3
:10051000A3227E18140B60276C30060E7E1E5D1B16
:100520007104FB2A882E8D0F461A2B1EC7FD5A2EEA
:100530009D2C1211FE15E72021F77931AA2A941279
:10054000A8118E2387F05334B2281314480D2026A7
:1005500002EAE536B3269015DF089A289CE32B398A
:10056000AE2409177104FB2A5DDD213BA3227E180E
:100570000000412D4ED7C53C9320EF198FFB6C2F07
:1005800078D1153E7E1E5D1B21F77931E2CB0F3FFE
:10059000641CC61CB8F2683395C6B13F461A2B1EC0
:1005A00058EE373597C1FB3F24188C1F02EAE53619
:1005B000F0BCEC3FFE15E720BAE57138A6B8853FE0
:1005C000D5133D2282E1DB39BEB4C53EA8118E238E
:1005D0005DDD213B40B1AF3D790FDA244DD9423C7E
:1005E0002EAE423C480D202656D53F3D8EAB823A7A
:1005F000140B602778D1153E63A97138DF089A285B
:10060000B7CDC53EB1A71236A906CE2915CA4F3FB0
:1006100078A668337104FB2A95C6B13FBCA5763035
:100620003902212C38C3EC3F7EA5412D0000412D1D
:1006300000C00040BCA5CE29C7FD5A2EF0BCEC3F3F
:1006400078A620268FFB6C2F09BAB13FB1A73D22B7
:1006500057F976304DB74F3F63A92B1E21F77931FB
:10066000BEB4C53E8EABEF19ECF474325EB2153EEB
:100670002EAE9015B8F268332DB03F3D40B1121147
:1006800087F053342EAE423CBEB47C0C58EE373566
:1006900061AC213BA6B8D6072BEC1236C8AADB39D1
:1006A000F0BC240302EAE53663A9713897C16EFEF7
:1006B000DCE7B03734A8E53695C6BAF9BAE5713843
:1006C0003BA73735E2CB0FF59CE32B3978A668338F
:1006D00078D173F082E1DB39EDA579314ED7EDEBBE
:1006E0006DDF823A99A56C2F5DDD82E75DDD213BF0
:1006F0007EA5412D9CE33AE352DBB63B99A5FB2A4C
:1007000002EA19DF4DD9423CEDA59A2887F026DB95
:100710004ED7C53C78A6202621F766D756D53F3D53
:100720003BA78E23C7FDDFD363D3AF3D34A8E720BB
:10073000710494D078D1153E63A92B1E140B8CCD77
:1007400094CF723EC8AA5D1BA811C9CAB7CDC53ED9
:1007500061AC7E18241850C8E2CB0F3F2EAE901526
:100760007E1E25C615CA4F3F2DB09412AE244AC432
:1007700051C8853F5EB28D0FAA2AC1C295C6B13F4E
:10078000BEB47C0C6C308EC1E2C4D43F4DB764095A
:10079000EB35B1C038C3EC3F09BA46061E3B2CC04E
:1007A00097C1FB3FF0BC2403004000000040000064
:1007B00000400000D03E2E019B3F6500363FC9003F
:1007C0009A3D5B02363FC900693E92015F3C880357
:1007D000D03E2E019A3D5B021E3BB504693E92015C
:1007E000C83C2403D939E205023EF701F43BED038E
:1007F0008E380E079A3D5B021E3BB5043F37390821
:10080000313DC002463A7E05EB356409C83C2403FD
:100810006B39460692348E0A5F3C88038E380E0789
:100820003433B70BF43BED03AF37D607D231DF0CCF
:100830008A3B5104CE369D086C30060E1E3BB50433
:10084000EB356409022F2B0FB23A1A0505352B0A36
:10085000932D5010463A7E051E34F10A212C731157
:10086000D939E2053433B70BAA2A94126B394606FC
:1008700049327C0C3129B413FD38AA065B31410D95
:10088000B327D2148E380E076C30060E3226EE15C2
:100890001F3872077B2FCA0EAE240917AF37D60751
:1008A000882E8D0F262321183F373908932D50109D
:1008B0009C213719CE369D089D2C12110E204B1A03
:1008C0005D360109A42BD3117E1E5D1BEB35640937
:1008D000AA2A9412EB1C6C1C7835C709AF29541353
:1008E000561B791D05352B0AB2281314BE19841E18
:1008F00092348E0AB327D21424188C1F1E34F10AA6
:10090000B326901588169120A933540BB1254C16A7
:10091000EA1493213433B70BAE2409174A139222F9
:10092000BF321A0CA923C417A8118E2349327C0C9C
:10093000A3227E1805108824D231DF0C9C213719A0
:10094000610E7E255B31410D9320EF19BB0C7126A2
:10095000E430A40D891FA71A140B60276C30060E13
:100960007E1E5D1B6D094C28F42F680E721D121C33
:10097000C40735297B2FCA0E641CC61C1B061A2A05
:10098000022F2B0F561B791D7104FB2A882E8D0F09
:10099000461A2B1EC702D82B0E2EEE0F3519DC1E61
:1009A0001C01B22C932D501024188C1F72FF882D1F
:1009B000182DB11011173A20C7FD5A2E9D2C121177
:1009C000FE15E7201DFC282F212C7311EA1493211A
:1009D00073FAF22FA42BD311D5133D22CAF8B830E5
:1009E000282B3412BF12E72221F77931AA2A941258
:1009F000A8118E2379F536322D2AF4129110352460
:100A0000D2F3EF32AF295413790FDA242CF2A33347
:100A10003129B413610E7E2587F05334B2281314A4
:100A2000480D2026E3EEFF34332873142E0CC12624
:100A300041EDA535B327D214140B6027A1EB48363E
:100A400033273115FA09FE2702EAE536B326901559
:100A5000DF089A2865E87E373226EE15C407352967
:100A6000CBE61238B1254C16A906CE2932E5A138BD
:100A70002F25AB168D05652A9CE32B39AE2409176B
:100A80007104FB2A08E2B0392B24661755038F2B1B
:100A900077E0303AA923C4173902212CE9DEAB3ABA
:100AA000262321181C01B22C5DDD213BA3227E18D8
:100AB0000000412DD5DB923B1F22DB18E4FECF2D39
:100AC0004FDAFD3B9C213719C7FD5A2ECDD8643C27
:100AD00017219319ABFCE42E4ED7C53C9320EF1998
:100AE0008FFB6C2FD3D5213D0E204B1A73FAF22FBA
:100AF0005CD4783D891FA71A57F97630E8D2C93DF2
:100B0000041F021B3CF8F93078D1153E7E1E5D1B98
:100B100021F779310CD05C3EF81DB81B06F6F83190
:100B2000A5CE9D3E721D121CECF4743241CDD83E10
:100B3000EB1C6C1CD2F3EF32E2CB0F3F641CC61CE3
:100B4000B8F2683388CA403FDD1B201D9FF1DF33B8
:100B500032C96B3F561B791D87F05334E1C7913F73
:100B6000CE1AD31D6FEFC63495C6B13F461A2B1E61
:100B700058EE37354EC5CC3FBE19841E41EDA53524
:100B80000CC4E13F3519DC1E2BEC1236CFC2F13F0D
:100B9000AD18341F16EB7D3697C1FB3F24188C1F10
:100BA00002EAE53665C000409B17E31FEFE84B37CC
:100BB00038BFFF3F11173A20DCE7B03711BEF83FCE
:100BC00088169120CBE61238F0BCEC3FFE15E720EA
:100BD000BAE57138D4BBDB3F74153D21AAE4CF38A8
:100BE000BFBAC43FEA1493219CE32B39AFB9A73FA6
:100BF0005F14E8218EE28439A6B8853FD5133D22E3
:100C000082E1DB39A2B75D3F4A13922277E0303AA6
:100C1000A5B6303FBF12E7226DDF823AAFB5FD3E89
:100C200034123B2364DED33ABEB4C53EA8118E23F2
:100C30005DDD213BD5B3883E1D11E22357DC6D3BC2
:100C4000F2B2453E9110352452DBB63B15B2FC3D65
:100C5000051088244FDAFD3B40B1AF3D790FDA240F
:100C60004DD9423C71B05B3DED0E2C254DD8853CF5
:100C7000A9AF033D610E7E254ED7C53CE8AEA53C2D
:100C8000D40DCF2551D6033D2EAE423C480D202633
:100C900056D53F3D7BADDA3BBB0C71265CD4783D2D
:100CA000D0AC6D3B2E0CC12663D3AF3D2BACFA3AD2
:100CB000A10B11276DD2E33D8EAB823A140B602756
:100CC00078D1153EF8AA063A870AAF2785D0453E67
:100CD0006AAA8439FA09FE2794CF723EE3A9FD3847
:100CE0006D094C28A5CE9D3E63A97138DF089A286E
:100CF000B7CDC53EEBA8E1375208E728CCCCEB3E98
:100D00007BA84B37C4073529E2CB0F3F12A8B13679
:100D100036078129FBCA303FB1A71236A906CE2972
:100D200015CA4F3F57A76E351B061A2A32C96B3FAB
:100D300005A7C6348D05652A51C8853FBBA6193461
:100D4000FF04B02A72C79C3F78A668337104FB2A5F
:100D500095C6B13F3EA6B232E303452BBAC5C43FA8
:100D60000BA6F83155038F2BE2C4D43FE0A53931EF
:100D7000C702D82B0CC4E13FBCA576303902212C28
:100D800038C3EC3FA1A5AF2FAA016A2C66C2F53F7C
:100D90008DA5E42E1C01B22C97C1FB3F81A5152E19
:100DA0008E00FA2CCAC0FF3F7EA5412D0000412DC8
:100DB00000C0004081A56A2C72FF882D38BFFF3F1C
:100DC0008DA58F2BE4FECF2D73BEFB3FA1A5B02ACE
:100DD00056FE152EB0BDF53FBCA5CE29C7FD5A2E37
:100DE000F0BCEC3FE0A5E72839FD9F2E32BCE13F87
:100DF0000BA6FE27ABFCE42E77BBD43F3EA6112703
:100E00001DFC282FBFBAC43F78A620268FFB6C2F6D
:100E100009BAB13FBBA62C2501FBAF2F56B99C3FA9
:100E200005A7352473FAF22FA6B8853F57A73B23B1
:100E3000E5F93430F8B76B3FB1A73D2257F976306A
:100E40004DB74F3F12A83D21CAF8B830A5B6303F84
:100E50007BA83A203CF8F93000B60F3FEBA8341FCE
:100E6000AEF739315EB5EB3E63A92B1E21F7793120
:100E7000BEB4C53EE3A9201D93F6B93122B49D3E10
:100E80006AAA121C06F6F83188B3723EF8AA021B51
:100E900079F53632F2B2453E8EABEF19ECF474328E
:100EA0005EB2153E2BACDB185FF4B232CDB1E33D40
:100EB000D0ACC417D2F3EF3240B1AF3D7BADAB162F
:100EC00045F32C33B5B0783D2EAE9015B8F26833AB
:100ED0002DB03F3DE8AE73142CF2A333A9AF033D10
:100EE000A9AF54139FF1DF3328AFC53C71B0341262
:100EF00013F11934A9AE853C40B1121187F0533477
:100F00002EAE423C15B2EE0FFBEF8D34B6ADFD3B7D
:100F1000F2B2CA0E6FEFC63441ADB63BD5B3A40DE5
:100F2000E3EEFF34D0AC6D3BBEB47C0C58EE3735ED
:100F300061AC213BAFB5540BCCED6E35F6ABD33A7B
:100F4000A5B62B0A41EDA5358EAB823AA2B70109B1
:100F5000B6ECDC3529AB303AA6B8D6072BEC123606
:100F6000C8AADB39AFB9AA06A1EB48366AAA843908
:100F7000BFBA7E0516EB7D360FAA2B39D4BB5104C0
:100F80008CEAB136B7A9CF38F0BC240302EAE536C3
:100F900063A9713811BEF70178E9183712A9123820
:100FA00038BFC900EFE84B37C5A8B03765C09BFF15
:100FB00065E87E377BA84B3797C16EFEDCE7B0371C
:100FC00034A8E536CFC240FD53E7E137F1A77D36BF
:100FD0000CC413FCCBE61238B1A712364EC5E6FAA4
:100FE00042E6423874A7A53595C6BAF9BAE5713814
:100FF0003BA73735E1C78EF832E5A13805A7C634DF
:1010000032C963F7AAE4CF38D3A6533488CA39F675
:1010100023E4FD38A4A6DF33E2CB0FF59CE32B39A4
:1010200078A6683341CDE6F315E3583950A6EF3280
:10103000A5CEBFF28EE284392CA674320CD098F182
:1010400008E2B0390BA6F83178D173F082E1DB39D0
:10105000EDA57931E8D24FEFFCE0063AD3A5F9309F
:101060005CD42DEE77E0303ABCA57630D3D50CEDCC
:10107000F2DF593AA9A5F22F4ED7EDEB6DDF823A98
:1010800099A56C2FCDD8CFEAE9DEAB3A8DA5E42E39
:101090004FDAB4E964DED33A85A55A2ED5DB9AE857
:1010A000E1DDFA3A7FA5CF2D5DDD82E75DDD213BF5
:1010B0007EA5412DE9DE6DE6DADC473B7FA5B22C4B
:1010C00077E059E557DC6D3B85A5212C08E248E423
:1010D000D5DB923B8DA58F2B9CE33AE352DBB63BED
:1010E00099A5FB2A32E52DE2D1DADA3BA9A5652ADA
:1010F000CBE624E14FDAFD3BBCA5CE2965E81DE037
:10110000CED9203CD3A5352902EA19DF4DD9423C7E
:10111000EDA59A28A1EB18DECDD8643C0BA6FE27DE
:1011200041ED19DD4DD8853C2CA66027E3EE1EDC91
:10113000CDD7A53C50A6C12687F026DB4ED7C53CAF
:1011400078A620262CF231DACFD6E43CA4A67E2560
:10115000D2F33FD951D6033DD3A6DA2479F551D83D
:10116000D3D5213D05A7352421F766D756D53F3D78
:101170003BA78E23CAF87FD6D8D45B3D74A7E7225D
:1011800073FA9BD55CD4783DB1A73D221DFCBBD43E
:10119000DFD3933DF1A79321C7FDDFD363D3AF3DE9
:1011A00034A8E72072FF06D3E8D2C93D7BA83A20D5
:1011B0001C0131D26DD2E33DC5A88C1FC70261D19D
:1011C000F2D1FC3D12A9DC1E710494D078D1153EF9
:1011D00063A92B1E1B06CCCFFED02D3EB7A9791DCF
:1011E000C40707CF85D0453E0FAAC61C6D0947CE60
:1011F0000CD05C3E6AAA121C140B8CCD94CF723EAC
:10120000C8AA5D1BBB0CD4CC1CCF883E29ABA71A47
:10121000610E21CCA5CE9D3E8EABEF19051073CB90
:101220002ECEB13EF6AB3719A811C9CAB7CDC53E0F
:1012300061AC7E184A1324CA41CDD83ED0ACC41745
:10124000EA1483C9CCCCEB3E41AD09178816E8C837
:1012500057CCFD3EB6AD4C16241850C8E2CB0F3F1C
:101260002EAE9015BE19BEC76ECB203FA9AED214CC
:10127000561B31C7FBCA303F28AF1314EB1CA8C65E
:1012800088CA403FA9AF54137E1E25C615CA4F3FDA
:101290002DB094120E20A7C5A3C95D3FB5B0D311E0
:1012A0009C212DC532C96B3F40B112112623B9C410
:1012B000C1C8783FCDB15010AE244AC451C8853F53
:1012C0005EB28D0F3226E0C3E1C7913FF2B2CA0E83
:1012D000B3277BC372C79C3F88B3060E31291CC35A
:1012E00003C7A73F22B4410DAA2AC1C295C6B13F88
:1012F000BEB47C0C212C6DC227C6BB3F5EB5B70BBC
:10130000932D1DC2BAC5C43F00B6F10A022FD3C146
:101310004EC5CC3FA5B62B0A6C308EC1E2C4D43F7B
:101320004DB76409D2314FC176C4DB3FF8B79D0891
:10133000343315C10CC4E13FA6B8D6079234E0C0DF
:10134000A1C3E73F56B90E07EB35B1C038C3EC3F38
:1013500009BA46063F3788C0CFC2F13FBFBA7E0503
:101360008E3864C066C2F53F77BBB504D93945C035
:10137000FEC1F83F32BCED031E3B2CC097C1FB3FC2
:10138000F0BC24035F3C19C030C1FD3FB0BD5B021F
:101390009A3D0BC0CAC0FF3F73BE9201D03E03C04E
:1013A00065C0004038BFC90070477047704710B52E
:1013B00000F008F8006810BD10B5044600F002F80F
:1013C000046010BD0048704704400020004870478A
:1013D000044000207546FFF7F9FFAE460500694658
:1013E000534620F00700854618B020B5FEF7DAFE18
:1013F000BDE820404FF000064FF000074FF0000816
:101400004FF0000B21F00701AC46ACE8C009ACE896
:10141000C009ACE8C009ACE8C0098D46704710B5FA
:101420000446AFF300802046BDE81040FEF7A5BE9D
:1014300001491820ABBEFEE726000200704721B12B
:10144000826842F00102826003E0826822F00102B9
:101450008260704700B585B00121480200F07EFC33
:101460004FF4004000F04EFC244800F0A1F80020AA
:10147000009001208DF8040000208DF805004FF445
:10148000002002900020039001208DF81000694692
:101490001A4800F0F1F8072301221146174800F01E
:1014A00013F9072302220421144800F00DF9072341
:1014B00003220521114800F007F901210F4800F02F
:1014C0001FF801210D48FFF7BAFF0C4800F058F94A
:1014D00000BF0A4800F0C6F80028FAD1074800F01B
:1014E00054F900BF054800F0B3F80028FAD10121F3
:1014F000024800F08BF805B000BD00000024014058
:1015000021B1826842F48072826003E0826822F432
:10151000807282607047000000B58BB001210846E0
:1015200000F0FCFB124800F089F9124800901248C4
:101530000190002002904FF440600390002004903E
:1015400080200590400006908000079020200890A1
:101550000002099000200A906946054800F033FA1D
:101560000121034800F05EF900F008F80BB000BD5F
:10157000080002404C2401400400002008B50B2064
:101580008DF8000002208DF8010001208DF8020086
:101590008DF80300684600F07BFB022000F034F970
:1015A00001220221014800F005FA08BD08000240AE
:1015B00010B504461248844208D10121401500F0BC
:1015C000DDFB0021601500F0D9FB17E00D488442D7
:1015D00008D10121001500F0D1FB0021201500F0F9
:1015E000CDFB0BE00848844208D10121C80300F07C
:1015F000C5FB00214FF4004000F0C0FB10BD00000F
:101600000024014000280140003C014021B18268D3
:1016100042F48012826003E0826822F480128260C9
:101620007047000008B50121042000F097FB32202C
:10163000ADF8000000208DF8030003208DF80200B3
:101640006946024800F0F0F908BD000000080140BA
:10165000014600208A6802F004020AB1012000E07D
:1016600000207047014600208A6802F008020AB193
:10167000012000E00020704730B502460020002322
:1016800050680F4C20400D790C6844EA0524204333
:10169000506090680B4C2040D1E902542C434D79A6
:1016A00044EA450420439060D06A20F470000C7C2A
:1016B000641EE4B2234340EA0350D06230BD000010
:1016C000FFFEF0FFFDF7F1FFF0B504460D460020E8
:1016D0000021092D11DDE068A5F10A0606EB460799
:1016E000072606FA07F18843A5F10A0606EB460627
:1016F00003FA06F10843E0600CE0206905EB4507BA
:10170000072606FA07F1884305EB450603FA06F1BA
:1017100008432061072A0FDA606B561E06EB860726
:101720001F2606FA07F18843561E06EB860605FAC1
:1017300006F10843606322E00D2A0FDA206BD61F02
:1017400006EB86071F2606FA07F18843D61F06EB2D
:10175000860605FA06F10843206310E0E06AA2F16C
:101760000D0606EB86071F2606FA07F18843A2F14D
:101770000D0606EB860605FA06F10843E062F0BDA9
:10178000816841F0080181607047816841F004017F
:10179000816070470EB50121022000F0CFFA40F2BF
:1017A0008A20ADF804004720ADF800000020ADF815
:1017B0000600ADF802006946054800F0ADFB2021A7
:1017C000034800F09FFB0121014800F08FFB0EBD94
:1017D0000004004010B5FFF725FFFFF7DBFFFFF720
:1017E0009BFEFFF737FE10BD00BFFEE710B50220DD
:1017F00000F0CAF828B1012002490870022000F068
:1018000003F810BD0000002000F0805111B1034921
:10181000086001E00249486070470000040402408B
:101820000000024021B1026842F00102026004E0BF
:1018300002684FF6FE731A400260704701684FF667
:10184000FE72114001600021016041608160C16051
:101850004B49884208D14A490839496841F00F018B
:10186000474A083A51608AE045491431884208D114
:1018700043490839496841F0F001414A083A51604A
:101880007DE03F492831884208D13D4908394968FF
:1018900041F470613A4A083A516070E038493C318D
:1018A000884208D136490839496841F47041344AC0
:1018B000083A516063E032495031884208D13049DA
:1018C0000839496841F470212D4A083A516056E0C0
:1018D0002B496431884208D129490839496841F4C3
:1018E0007001274A083A516049E025497831884219
:1018F00008D123490839496841F07061204A083A03
:1019000051603CE01F49884206D1011F096841F03F
:101910000F01021F116032E01A491431884208D1C8
:101920001849091F096841F0F001164A121F116099
:1019300025E014492831884208D11249091F096855
:1019400041F470610F4A121F116018E00D493C31DB
:10195000884208D10B49091F096841F47041094ABE
:10196000121F11600BE007495031884207D1054929
:10197000091F096841F47021024A121F1160704763
:10198000080002400804024001460020002201F045
:10199000805313B1054B1A6801E0054B1A6802EA3F
:1019A00001030BB1012000E0002070470004024059
:1019B000000002401AB103680B43036002E00368B1
:1019C0008B430360704710B50022026847F6F0733E
:1019D0009A430C6A8B6823430C6923434C69234365
:1019E0008C692343CC6923434C6A23438C6A234389
:1019F0001A430260CB6843600B6883604B68C36026
:101A000010BD704710B5002000F00EF94FF4806251
:101A100003490448FEF7D8FB00F096F810BD00001B
:101A200004180020042800202DE9F041024600257A
:101A30000026002000230024002791F803C00CF0AA
:101A40000F0591F803C00CF0100CBCF1000F03D08F
:101A500091F802C04CEA050591F800C0BCF1000FF6
:101A600031D0146800202BE04FF0010C0CFA00F389
:101A7000B1F800C00CEA03069E4220D183004FF06B
:101A80000F0C0CFA03F7BC4305FA03FC4CEA040400
:101A900091F803C0BCF1280F06D14FF0010C0CFAED
:101AA00000FCC2F814C00AE091F803C0BCF1480F72
:101AB00005D14FF0010C0CFA00FCC2F810C0401C1C
:101AC0000828D1D31460B1F800C0BCF1FF0F34DD99
:101AD000546800202EE000F1080C4FF0010808FACD
:101AE0000CF3B1F800C00CEA03069E4221D183003A
:101AF0004FF00F0C0CFA03F7BC4305FA03FC4CEA59
:101B0000040491F803C0BCF1280F05D100F1080CC2
:101B100008FA0CF8C2F8148091F803C0BCF1480F21
:101B200007D100F1080C4FF0010808FA0CF8C2F8D0
:101B30001080401C0828CED35460BDE8F08141617C
:101B400070470161704700002DE9F04F89B0002413
:101B50005EE0324830F824000FFA80F92F4850F840
:101B60002400000C0FFA80FA484600F0AFFE8046D1
:101B70004FF0894100F0C2FE07464FF08E4100F061
:101B8000C3FD0546504600F0A1FE80464FF0894156
:101B900000F0B4FE07464FF08E4100F0B5FD06465A
:101BA0003146304600F0AAFE29460290284600F051
:101BB000A5FE0190029900F045FD039000F016FD8E
:101BC000CDE9040100F028FA0022154BCDE9060109
:101BD00000F07AFA074600F045FA83465CB94FF008
:101BE0008E41584600F08AFE074600F04FFE0D4930
:101BF00041F824000AE04FF08F41584600F07EFE85
:101C0000074600F043FE074941F82400601C84B2F7
:101C1000B4F5007F9DDB09B0BDE8F08F04280020FB
:101C20000000904004380020014600200BE000EB4B
:101C30004002074B03EB420232F81120054B43F8F8
:101C40002020421C90B2B0F5806FF0DB704700009E
:101C5000040000200418002000BFFEE708B50121A1
:101C6000042000F07BF80420ADF8000010208DF86F
:101C7000030003208DF8020069460248FFF7D4FEF6
:101C800008BD00000008014000BFFEE770470000EB
:101C900070B5002100230F22C47804B3154C2468CA
:101CA00004F4E064C4F5E064210AC1F10403CA400D
:101CB000447804FA03F184781440214309010E4C5E
:101CC0000678A155047804F01F050124AC4005787E
:101CD0006D11AD0005F1E025C5F8004109E004787B
:101CE00004F01F050124AC40044D0678761145F838
:101CF000264070BD0CED00E000E400E080E100E073
:101D00007047000001460020034A506820F440401C
:101D100008435060704700000010024029B1064A95
:101D200052690243044B5A6104E0034A52698243F8
:101D3000014B5A61704700000010024029B1064A69
:101D4000D2690243044BDA6104E0034AD269824358
:101D5000014BDA61704700000010024029B1064AC9
:101D600092690243044B9A6104E0034A92698243F8
:101D7000014B9A61704700000010024029B1064AE9
:101D8000D2680243044BDA6004E0034AD26882431B
:101D9000014BDA607047000000100240704710B538
:101DA00000F002F810BD00000CB50020019000907A
:101DB0003348006840F480303149086000BF304843
:101DC000006800F4003000900198401C01900098D9
:101DD00018B90198B0F5A06FF1D12948006800F456
:101DE000003010B10120009001E000200090009828
:101DF000012843D12348006840F0100021490860C1
:101E00000846006820F0030008600846006840F0BB
:101E1000020008601A48406819494860084640684E
:101E200048600846406840F4806048600846406862
:101E300020F47C1048600846406840F4E810486090
:101E40000846006840F08070086000BF0C480068D9
:101E500000F000700028F9D00948406820F0030025
:101E6000074948600846406840F00200486000BFEB
:101E70000348406800F00C000828F9D10CBD0000B0
:101E800000100240002002407047000010B51348C7
:101E9000006840F001001149086008464068104998
:101EA00008400E494860084600680E4908400B4942
:101EB00008600846006820F48020086008464068F2
:101EC00020F4FE0048604FF41F008860FFF767FFB2
:101ED0004FF000600449086010BD0000001002408F
:101EE0000000FFF8FFFFF6FE08ED00E021B10288D8
:101EF00042F00102028004E002884FF6FE731A40AD
:101F00000280704782884FF68F731A4082808288E1
:101F10000A43828070470000002202881D4B9842CD
:101F20000ED01D4B98420BD0B0F1804F08D01B4B08
:101F3000984205D01A4B984202D01A4B984204D1CD
:101F40004FF68F731A404B881A43174B984207D0AD
:101F5000164B984204D04FF6FF431A40CB881A43E1
:101F600002808B8883850B8803850A4B98420BD0AF
:101F7000094B984208D00E4B984205D00D4B984221
:101F800002D00D4B984201D10B7A03860123838244
:101F900070470000002C0140003401400004004064
:101FA00000080040000C00400010004000140040F9
:101FB00000400140004401400048014010B50A487B
:101FC000007808B9012000E00020074908700846A1
:101FD000007820B104210548FFF7B1FD03E004219A
:101FE0000248FFF7AEFD10BD0100002000080140CF
:101FF00000BFFEE7FFF732FEFFF7ECFB09E0054804
:10200000007830B1002003490870FFF7D7FFFFF7D1
:10201000F9FCF4E7000000202DE9F04106460F46E8
:1020200000F0FEF9041E0D4618BF0120284320F0E1
:102030000040C0F17F6000F1E040C00F0ED0301CC6
:1020400018BF0120384320F00040C0F17F6000F14C
:10205000E040C00F04BF0120FFF7AEF9204629463B
:10206000BDE8F08121F00042A2F16052B2F5801F7C
:1020700001F0004328BFD2F17F6C0BD95FEA001C4E
:1020800043EAC20242EB507018BF704728BF20F0ED
:1020900001007047B2F5801FBCBF184670474FEA79
:1020A000410C1CF5001F02D2084600F0EEBC70B5D2
:1020B00000F062F900000089FFF7F6BF4FF0004022
:1020C000A0F58000704700002DE9C04130B4DFF872
:1020D000A0C23CEA111418BF3CEA131400F0EC80D3
:1020E00081EA03051CEA111444EAD57418BF1CEAFE
:1020F000131500F0C780A4EB05044FF0004545EA36
:10210000C12145EAC32341EA505143EA525304F145
:102110007F74994204F500344FEAC0204FEAC2228E
:1021200008BF904200F09C804FEA13650FF2401602
:10213000765D4FEA134506FB05F7C7F1807706FB8E
:1021400007F74FEAD737A7FB03687642C8F5803810
:10215000A7FB06CE38BFA8F1010807FB08E64FF041
:10216000000EA6FB028CE6FB03CEDCF1000CCEF1E8
:10217000004E38BFAEF1010EA6FB0C584FF0000721
:102180004FF00005E6FB0E87A1FB08C6A0FB07CEBB
:1021900016EB0E0645F10005E1FB076515F1E04E73
:1021A0007EBFA4F580345FEA46066D4116F18007D4
:1021B00045F100054FEA17274FEA066647EA05672B
:1021C000A6F1DE46B6F1805F4FEA15251FD93846E5
:1021D00024F0010C05EBC471BCF1FE6F01EB0C1196
:1021E00002D8F0BCBDE8008124425CBF01F5801E2E
:1021F0009EEAC47F02D4F0BCBDE80081244238D4FA
:10220000F0BCA1F1C041BDE8004100F003B94FEAC4
:10221000D22242EA43524FEAD323A7FB02864FEA77
:10222000D02040EA415007FB03661EEA0E0F4FEA3A
:10223000D12105FB026658BFA6EB0056B6EB00564F
:102240004FEA520E4EEAC37E18EB0E0E56EB530EBB
:10225000BDD518EB02085E417F1C55F10005B6E7BD
:102260004FF480154FF000074FF000064FF00008C4
:10227000ADE7F0BC4FF0000001F1C04101F00041BA
:10228000BDE8008111EA0C1F0CEA131500D00CE028
:1022900013EA0C1F00F025804FF00000F0BC81EA2B
:1022A000030101F00041BDE80081F0BCBDE8004140
:1022B00081EA030100F0AEB8F0BCBDE8004170B5A2
:1022C00000F05AF8097EFC3E00F007B881EA0301ED
:1022D0004FF0000001F00041704781EA030100F077
:1022E00099B8F0BCBDE800414FF0000021497047AB
:1022F000FFFDFBF9F7F5F4F2F0EEEDEBE9E8E6E4CB
:10230000E3E1E0DEDDDBDAD8D7D5D4D3D1D0CFCD51
:10231000CCCBCAC8C7C6C5C4C2C1C0BFBEBDBCBB8A
:10232000BAB9B8B7B6B5B4B3B2B1B0AFAEADACAB85
:10233000AAA9A8A8A7A6A5A4A3A3A2A1A09F9F9E5F
:102340009D9C9C9B9A999998979796959594939311
:10235000929191908F8F8E8E8D8C8C8B8B8A8989A8
:10236000888887878685858484838382828181802B
:102370000000FF070000F87F0EF1020E2EF0030EA2
:102380005EF8046B364205D4012A43EB030515F5CC
:10239000001F12D8012841EB010C1CF5001F0CD8BE
:1023A0000ED14FEAD17C15F5001F0CEB4C0C0CF153
:1023B000020C08BF4CEBD37C04E04FF0080C01E0AA
:1023C0004FEAD37C0CEB4C0526FA05F606F007061F
:1023D000B6F1040C06D20EEB860CBDE870404CF052
:1023E000010C6047DFE80CF0090B02024FF00041DE
:1023F0004FF00000A1F5002170BD194610460128DC
:1024000051EB010418BFD4F5001484BF002001F083
:10241000004170BD0808A0F500114FEA3101704776
:102420002DE9F04101F5801CBCF5001FC0F2C3800E
:102430004FEA115C21EA0C510CF1FD0C41F48011C2
:102440005FEA5C0C0CF5C07C01D3400049413DA41F
:10245000890241EA905187028E0E0A0CA45D04FBAA
:1024600004F602FB06F6C6F14046A4FB0662F60D32
:1024700046EA422606FB06F4A4FB01235242C3F1BE
:10248000404338BF5B1EA6FB02420024E6FB032448
:10249000D20B42EA4446A6FB0623A1FB02E2A3FBC1
:1024A00007E4A4184FF0000252F10002E3FB0142DE
:1024B0006442C2F1404E38BFAEF1010EA6FB0423C8
:1024C0004FF00002E6FB0E32A2FB03464FF0000481
:1024D000B61954F10004E2FB0264A1FB06E6A4FB7A
:1024E00007E816EB08064FF0000858F10008E4FB77
:1024F00001687642C8F1405838BFA8F10108A2FB34
:1025000006E4A3FB08E52D194FF0000454F1000484
:10251000E2FB0854A1FB05E6A7FB04E818EB06085C
:102520004FF0000656F10006E1FB048618F1200585
:1025300056F10006A809A8F11B08B10908F03F08E8
:10254000B8F10A0F40EA86601CD901EB0C51BDE8D6
:10255000F08100BFFCF5EEE8E2DDD8D3CFCBC7C3F6
:10256000C0BDB9B6B4B1AEACA9A7A5A3A19F9D9BB0
:102570009A9896959392908F8D8C8B898887868573
:1025800084838281A0FB006800FB01F208EB420813
:10259000B8EB872807D5341858EB0104D5D5401C73
:1025A00051F10001D1E7341A78EB0104CDD4401E7B
:1025B00071F10001C9E75FEA4C0C5FEA9C5C0DD148
:1025C00005D34FF0000001F00041BDE8F081BDE807
:1025D000F04170B5FFF7D0FE6DDBFFBEBDE8F04106
:1025E0004FF00000004970470000F87F43004FEAB9
:1025F000D30C4FEA3C0C43401FBF40070CF1605125
:1026000013F0FE4F70471CF0006F03D100200CF058
:10261000004170470CF0004343EA507010B540EAA7
:10262000CC0000F0ECF900BF000000924FEA00017E
:10263000FFF7F0BE4FF000414FF00000A1F5002180
:102640007047000090EA010F48BF81F0004100F19F
:102650002882421A3CBF801A89184FEAD0524FF0A4
:102660007F4C1CEA410FA2EBD15318BF9CEA026FCA
:1026700000F03B804FF0004C4CEA00204CEA012176
:1026800021FA03FC10EB0C0C1ED202F1FF325FEAC0
:102690001C2040EBC25038BF70471CF07F0F4FEA40
:1026A000400C18BFBCF17F4F38BF7047C3F1200307
:1026B000994008BF20F00100BCF17F4F38BF704740
:1026C000A0F1C04000F0E1B94FEA3C00000A40EB45
:1026D000C25028BF1CF0FF0F4FEA400CE6D018BFD5
:1026E000BCF17F4F38BF7047EAE79CEA026F05D024
:1026F00010EA5C0F08BF00F00040704710B500F012
:102700007EF900BF64FBBE3E4FF47F0C1CEAD01282
:102710001EBF1CEAD11392EA0C0F93EA0C0F00F0D3
:10272000858090EA010F48BF42F4807240F4000CAB
:1027300041F400002CF07F4120F07F4000B5814241
:10274000A2EB03020FF2081CACEB504EC0F10000EC
:102750009EF800E04FEA4E0E00FB0EFC38BF490029
:102760004FEA2C1C02F5FA020CFB0EF34FEACE1EC8
:102770004FEA112C4FEAC1210EEB635E42EB22427D
:102780000EFB0CFC4FEA1C5300FB03114FEA112C0B
:102790004FEA01310EFB0CFC4FEADC4C00FB0C1144
:1027A000C14228BF09184CEB03335DF804EB10EB72
:1027B000410143EBC250B2F57C0F38BF704729D5B9
:1027C00012F0F00F1CBF00F1C04000F00040704755
:1027D000008182838485868788898B8C8D8E8F91FA
:1027E0009293959697999A9C9D9FA0A2A3A5A7A81E
:1027F000AAACAEB0B2B3B5B7B9BCBEC0C2C5C7C94A
:10280000CCCED1D4D7D9DCDFE2E6E9ECF0F3F7FAAD
:10281000FE0000004FEA400C0CF1807CBCF17E4FC2
:1028200028BF7047B0F1C04000F02FB990EA010F07
:102830000CEAD11348BF42F48072624538BF634549
:1028400007D213F47F0F16D080EA010000F0004099
:10285000704710B500F0D3F8097EFC3E00F005B8D3
:1028600080EA010000F00040704780EA010000F0BB
:10287000004000F00AB912F47F0F04BF024870470D
:1028800080EA010000F001B90000C07FC10DD1F164
:102890009E0206DB4FEA002343F0004323FA02F0D6
:1028A0007047004207D54FEA4001B1F1FE4F02D216
:1028B0004FF00000704710B500F0A1F84992248055
:1028C000002070476FEA20007047000010F00041C0
:1028D00048BF4042B0FA80F310FA03F2C3F19D03FF
:1028E0000BD051EAC35101EB1220530638BF704799
:1028F00000F1010008BF20F0010070474FF47F0C89
:102900001CEAD0121EBF1CEAD11392EA0C0F93EA04
:102910000C0F00F0478090EA010F48BF42F480722C
:102920004FF0004C4CEA00204CEA012102EB03027C
:10293000A0FB0113A2F50002002918BF43F0010318
:102940005B0028BF4FEA330342EB22425FEA132CBD
:102950004CEBC2502EBFBCEB436FB2F57C0F7047FF
:102960004FEA036CBCF1004F08BF20F00100B2F544
:102970007C0F38BF70470BD582F0FF0212F5803F05
:10298000C8BF704700F1C040D8BF00F0004070479A
:1029900000F5000C5FEA4C0C48BF7047B0F1C04036
:1029A00000F073B890EA010F0CEAD11348BF42F46B
:1029B0008072624538BF634504D280EA010000F0AE
:1029C0000040704710B500F01AF800BF8900013EC2
:1029D00000F007B800F009B85FEA410C5FEA1C6C30
:1029E00008D080EA010000F050B85FEA400C5FEACE
:1029F0001C6CF6D14FF00040A0F5800070470EF13E
:102A0000020E2EF0030E5EF8044B244204D44FEA6B
:102A10004102B2F17F4F11D84FEA4003B3F17F4F2B
:102A20000CD80ED14FEAD07CB2F17F4F0CEB4C0C9E
:102A30000CF1020C08BF4CEBD17C04E04FF0080C09
:102A400001E04FEAD17C0CEB4C0324FA03F404F0D0
:102A50000704B4F1040C06D20EEB840CBDE8104060
:102A60004CF0010C6047DFE80CF0070802024FF061
:102A70000040A0F5800010BD0846420018BFD2F10A
:102A8000807288BF00F0004010BDFF2141EAD050A5
:102A9000C005704790EA010F48BF81F000413FF543
:102AA000D8AD421A04D882F00042A0EB02001144D3
:102AB0004FEAD0524FF07F4C1CEA410FA2EBD153AA
:102AC00018BF9CEA026F4AD04FF0004C4CEA00203D
:102AD0004CEA012121FA03FCB0EB0C0C0FD412F0EC
:102AE000FE0F36D05FEA4C001DD5001240EBC250FD
:102AF00038BF70471CF03F0F18BF70470BE0A2F1C2
:102B000001025FEA1C2040EBC25038BF70471CF046
:102B10007F0F18BF7047C3F12003994014BF401EB8
:102B200020F00100704780084FEA122308BF704769
:102B3000B0FA80FCA2EB0C02CCF1280C60FA0CF08D
:102B400093EA122F04BF00EBC25070474FEAC370E4
:102B50007047130A5FEADC1008BF7047F6E79CEA8B
:102B6000026F04D010EA5C0F08BF0020704710B558
:102B7000FFF745FF40DFF63E81F000407047000060
:102B8000A02B00080000002004000000280100081D
:102B9000A42B000804000020644600004401000843
:042BA0000001000030
:04000005080000ED02
:00000001FF
